:020000040800F2
:10000000B8120220C1010008D90B0008A709000896
:10001000D50B0008CB080008E31E00080000000014
:10002000000000000000000000000000D50D0008E6
:10003000CF08000800000000690C0008F90E000855
:10004000DB010008DB010008DB010008DB01000820
:10005000DB010008DB010008DB010008DB01000810
:10006000DB010008DB010008DB010008DB01000800
:10007000DB010008DB010008DB010008DB010008F0
:10008000DB010008DB010008DB010008DB010008E0
:10009000DB010008DB010008DB010008DB010008D0
:1000A000DB010008DB010008DB010008DB010008C0
:1000B000DB010008DB010008DB010008DB010008B0
:1000C000DB010008DB010008DB010008DB010008A0
:1000D000DB010008DB010008DB010008DB01000890
:1000E000DB010008DB010008DB010008DB01000880
:1000F000DB010008DB010008DB010008DB01000870
:10010000DB010008DB010008DB010008DB0100085F
:10011000011D0008DB010008DB010008DB0100080D
:10012000DB010008DB010008DB010008DB0100083F
:10013000DB010008DB010008DB010008DB0100082F
:10014000DB010008DB010008DB010008DB0100081F
:10015000DB010008DB010008DB010008491D000885
:10016000DB010008DB010008DB010008DB010008FF
:10017000DB010008DB010008DB010008DB010008EF
:10018000DB010008DB010008DB010008DB010008DF
:10019000DB010008DB010008DB010008DB010008CF
:1001A0000000000000000000DB010008DFF80CD0B8
:1001B00000F03EFB00480047A5530008B81202209B
:1001C0000648804706480047FEE7FEE7FEE7FEE7F1
:1001D000FEE7FEE7FEE7FEE7FEE7FEE7390F000871
:1001E000AD01000840EA01039B0703D009E008C9FC
:1001F000121F08C0042AFAD203E011F8013B00F8EC
:10020000013B521EF9D270472DE9FE4F804681EA2C
:100210000300C00F0C46009021F0004123F0004580
:10022000B8EB0200A94105D24046214690461C4643
:100230000B46024623F00040104347D0270DC7F37A
:100240000A00C3F30A510290401A019040286BDA69
:10025000C3F3130040F4801B0098924620B10023A2
:10026000D2EB030A63EB0B0B01985946C0F1400235
:10027000504600F0AFF906460D4650465946019AE1
:1002800000F0B7F910EB08006141002487EA115231
:1002900084EAE7731A4340D0009A62B3019A012AB4
:1002A0004FEA075215DC001B61EB02014FF00042E0
:1002B00002EA0752CDE90042001C41F580113246A6
:1002C0002B4600F0EEF903B0BDE8F08F4046214622
:1002D000F9E7001B61EB0201001C41F580130018D7
:1002E0005B412018A2F5001747EB030140EAD570E7
:1002F000B6196D4111E06D084FEA360645EAC07542
:100300004FEA0752001B61EB0201001C41F580110E
:1003100049084FEA30000019514132462B4603B0DC
:10032000BDE8F04F00F0AEB9009801224000002374
:10033000D0EB020263EBE073009821464FEAE074D1
:10034000B8EB000061EB0401E9E783F000435BE7F1
:1003500081F0004158E72DE9FE4F81EA030404F0E3
:10036000004421F0004100944FF0000B23F00043C3
:1003700050EA01045ED052EA03045BD0C3F30A548E
:10038000C1F30A552C44A4F2F3340194A0FB0254A7
:10039000C1F3130141F48011C3F3130343F4801339
:1003A00001FB024400FB034E840A970A44EA81548D
:1003B00047EA8357A4FB076802958D0A05FB07856A
:1003C0004FEA932C04FB0C542705029D4FEA065874
:1003D00047EA1637B5EB08056EEB070C870E920E51
:1003E00047EA811742EA8312A7FB0201B6EB0B0131
:1003F00064EB00042B0D43EA0C335E1844EB1C50F5
:10040000DA465146E7FB0201C5F313044FEA0B330A
:1004100043EA14534FEA0432019C43EA0603A4F171
:100420000C040294009CCDE900B400F03AF903B04A
:10043000BDE8F08F00200146F9E72DE9F04D81EA93
:10044000030404F0004B21F0004514464FF0000A6D
:1004500023F0004150EA050220D054EA01021DD0E9
:10046000C5F30A570246C5F31303C1F31300C1F3E2
:100470000A5640F4801543F48013A7EB0608101BBE
:10048000D64608F2FD3873EB050002D308F10108E7
:1004900001E092185B41B8F1000F03DA0020014639
:1004A000BDE8F08D00204FF48011064684460EE032
:1004B000171B73EB050705D3121B63EB05030643FC
:1004C0004CEA010C49084FEA300092185B4150EAAF
:1004D0000107EDD152EA030012D082EA040083EA58
:1004E0000501084305D0101BAB4106D201220023B1
:1004F00006E000224FF0004302E06FF001025310CB
:100500001AEB06004CEB085110EB0A0041EB0B0113
:10051000BDE8F04D00F0B6B8F0B4CA17CB0F5040AC
:100520005140C61841F100054FEAC3723146280018
:100530004FF0960303D0B623F0BC00F075B83046F8
:100540000021F9E700F0004230F000400AD0C10D70
:1005500001F56071C0F3160042EA0151C20840077C
:1005600011437047002001467047000030B5041E5B
:1005700071F1000404DB4FF00044404264EB0101E0
:10058000141E73F1000405DB1C464FF00043524279
:1005900063EB0403994208BF904230BD01F0004371
:1005A00030B421F0004150EA010206D00A0DA2F554
:1005B0006072C1F31301002A02DC30BC00207047D6
:1005C000440F44EAC104C100E01830BC00EBC25043
:1005D00000F021B8202A04DB203A00FA02F10020C2
:1005E00070479140C2F1200320FA03F31943904071
:1005F0007047202A06DBCB17203A41FA02F043EA83
:10060000E07306E041FA02F3D040C2F120029140CB
:100610000843194670470029A8BF7047401C49008D
:1006200008BF20F00100704710B4B0FA80FC00FA57
:100630000CF050EA010404BF10BC704749B1CCF182
:10064000200421FA04F411FA0CF118BF012121430E
:100650000843A3EB0C01CB1D4FEA00614FEA1020C9
:1006600042BF002010BC704700EBC350104400296B
:10067000A4BF10BC7047401C490008BF20F0010017
:1006800010BC704710B5141E73F1000408DA401C4A
:1006900041F1000192185B411A4301D120F00100A1
:1006A00010BD2DE9F04D92469B4611B1B1FA81F291
:1006B00002E0B0FA80F220329046FFF78BFF04464A
:1006C0000F4640EA0A0041EA0B0153465A460843E6
:1006D00013D0114653EA010019D0C8F14002504628
:1006E00000F0B8F805460E46504659464246FFF718
:1006F00071FF084305D0012004E020463946BDE8DB
:10070000F08D0020054346EAE0762C4337430A98F3
:100710006305E40AA0EB08000022FD0A44EA4754FE
:100720000A3002D500200146E9E7010510196941A8
:10073000DDE9084500196941BDE8F04DA2E770B553
:1007400021F0004303430CD0C1F30A550024D5EB3C
:10075000040564EB0403D617AD1AB34102DB002095
:10076000014670BD201841EB025170BD2DE9F04DDE
:1007700000231A461B1A8A4103DB00200146BDE80C
:10078000F08DC1F30A52C1F3130141F480154FF00B
:10079000000BD10702D100186D41521E00270446FC
:1007A00040F2FF11384601EB620A3E46804602469F
:1007B00000204FF4801100F04DF8C2197141BB18B0
:1007C00046EB0100B4EB030C75EB000C04D3E41A08
:1007D00065EB000517460E46241908F101006D412E
:1007E00080463428E3DDF91946EB0600091BA841D1
:1007F00003D24FF0FF32134601E0002213461BEBF9
:10080000070046EB0A51BDE8F04DFFF73BBF0EB5C0
:10081000C10F80EAE0700844CA07002140F2334368
:100820008DE80E000A460B46FFF73BFF03B000BD04
:10083000064C074D06E0E06840F0010394E807002D
:1008400098471034AC42F6D3FFF7B4FCD8720008D6
:10085000F8720008202A04DB203A21FA02F0002175
:10086000704721FA02F3D040C2F1200291400843C0
:100870001946704770B58C1810F8015B15F0070326
:1008800001D110F8013B2A1106D110F8012B03E029
:1008900010F8016B01F8016B5B1EF9D12B0705D431
:1008A0000023521E0DD401F8013BFAE710F8013B7A
:1008B000CB1A921C03E013F8015B01F8015B521E96
:1008C000F9D5A142D8D3002070BD00BFFEE7704724
:1008D000F0B50A4600210023002400BF3DE00125B9
:1008E00005FA01F3156805EA03049C4234D1056852
:1008F0004F000326BE40B543056015794E00B54054
:100900000668354305601579012D02D01579022D51
:1009100016D185684F000326BE40B54385605579E2
:100920004E00B540866835438560456801268E4097
:10093000B5434560456896798E40B6B2354345600B
:10094000C5684F000326BE40B543C560D5794E004B
:10095000B540C6683543C560491C1029BFD3F0BDFA
:10096000F0B5002300244D07ED0E02FA05F3CE107A
:1009700000F1200555F826504E07F70E0F26BE4011
:10098000B543CF1000F1200646F82750CE1000F1F5
:10099000200555F8265045EA0304CE1000F1200545
:1009A00045F82640F0BD00BFFEE721B1028842F4C1
:1009B0008062028004E002884FF6FF331A40028012
:1009C000704770B502460024002500230020958A58
:1009D000138B1B0445EA030626F07F4404EA010654
:1009E0008E4201D1012000E0002070BD21B10288BB
:1009F00042F00102028004E002884FF6FE731A40C2
:100A00000280704710B504461348844209D1012181
:100A1000480500F04BF900214FF4001000F046F9B2
:100A200018E00E48844209D10121880500F03EF902
:100A300000214FF4800000F039F90BE008488442AF
:100A400008D10121C80500F031F900214FF4000060
:100A500000F02CF910BD0000005400400058004088
:100A6000005C004021B1028842F48072028004E000
:100A700002884FF6FF631A400280704721B1028856
:100A800042F40072028004E002884FF6FF531A40DD
:100A9000028070470CB502460020002301930093AA
:100AA00000920B0F019321F07F41019B1BB1009B32
:100AB0001433009303E0090C009B18330093009B50
:100AC0001B680B400BB1012000E000200CBD0000B2
:100AD0002DE9FF4704460D460026B1460427DFF8FE
:100AE000CC80A6884FF6C0700640684600F0FEF83D
:100AF000DDF808802E48B8FBF0F01FFA80F946EACE
:100B00000906A68020884FF6FE7108402080002646
:100B10002849286888420CD828684000B8FBF0F0C3
:100B200087B2042F00DA04273E4309F10100208434
:100B300027E0E8884BF6FF71884206D1286800EB71
:100B40004000B8FBF0F087B209E0286800EBC00174
:100B500001EB0010B8FBF0F087B247F48047C7F311
:100B60000B0008B947F0010747F4004006434FF473
:100B7000967009FB00F04FF47A7190FBF1F0401C85
:100B80002084A683208840F00100208026884FF62C
:100B9000F5300640A8886989084306432680A8895D
:100BA000298908432081BDE8FF87000000127A00F0
:100BB00040420F00A08601000146088AC0B270477B
:100BC00012B141F0010101E001F0FE010182704724
:100BD0000182704700BFFEE77047000070B500213A
:100BE00000230F22C4781CB3174C246804F4E0647B
:100BF000C4F5E064C4F30721C1F10404E3B20A417F
:100C000044789C40E1B28478144021430C07210EC3
:100C10000E4C05786155047804F01F050124AC40A2
:100C200005786D11AD0005F1E025C5F8004109E03A
:100C3000047804F01F050124AC40054D06787611B8
:100C400045F8264070BD00000CED00E000E400E037
:100C500080E100E002490143024A11607047000050
:100C60000000FA050CED00E07047000029B1064ACB
:100C700012680243044B1A6004E0034A126882437C
:100C8000014B1A60704700003038024029B1064A13
:100C900012680243044B1A6004E0034A126882435C
:100CA000014B1A60704700004038024029B1064AE3
:100CB00012680243044B1A6004E0034A126882433C
:100CC000014B1A60704700002038024029B1064AE3
:100CD00012680243044B1A6004E0034A126882431C
:100CE000014B1A607047000044380240F0B5002103
:100CF00000220024022500260223324F3F6807F01D
:100D00000C0121B1042905D0082937D105E02E4F67
:100D1000076036E02D4F076033E02A4F3F1F3F68E2
:100D2000C7F38056274F3F1F3F6807F03F036EB160
:100D3000264FB7FBF3F7DFF88CC0ACF1040CDCF8FE
:100D400000C0CCF3881C07FB0CF40CE01E4FB7FB73
:100D5000F3F7DFF870C0ACF1040CDCF800C0CCF3A2
:100D6000881C07FB0CF4174F3F1F3F68C7F3014770
:100D70007F1C7D00B4FBF5F7076002E0124F0760AF
:100D800000BF00BF0F4F3F6807F0F0010909104F87
:100D90007A5C0768D74047600A4F3F6807F4E05124
:100DA000890A0B4F7A5C4768D7408760054F3F68D8
:100DB00007F46041490B064F7A5C4768D740C7602B
:100DC000F0BD0000083802400024F40000127A0050
:100DD00000000020704700000CB50020019000903A
:100DE0004148006840F480303F49086000BF3E48F9
:100DF000006800F4003000900198401C01900098B9
:100E000018B90198B0F5A04FF1D13748006800F447
:100E1000003010B10120009001E000200090009807
:100E2000012860D130484030006840F080502E49A1
:100E3000403108602D48006840F440402B4908606C
:100E400029480830006828490831086008460068C9
:100E500040F4004008600846006840F4A050086074
:100E60002348091F0860081F006840F08070091FB0
:100E7000086000BF1C48006800F000700028F9D02E
:100E80001A48006840F480301849086000BF1748CD
:100E9000406800F480300028F9D01448006840F41D
:100EA00000301249086000BF1048406800F400306C
:100EB0000028F9D040F205700E4908600A48083051
:100EC000006820F0030008490831086008460068FF
:100ED00040F00200086000BF03480830006800F0DE
:100EE0000C000828F8D10CBD00380240007000400A
:100EF000085A4007003C024000B5002213E00C49AC
:100F000051F8220002F0FEFF60B1094850F82200BB
:100F10000068074951F8221049680844044951F80B
:100F200022100860521C034800688242E7DB00BDC3
:100F3000100200204800002010B51548006840F459
:100F40007000134908601348006840F0010011491F
:100F5000086000200F49083108600E4800680E49FB
:100F600008400C4908600D48091D0860081F00680A
:100F700020F48020091F0860002006490C31086019
:100F8000FFF72AFF4FF0006001498039086010BD6B
:100F900088ED00E000380240FFFFF6FE103000242C
:100FA00021B1028842F08002028004E002884FF6FC
:100FB0007F731A4002807047CA430282704721B192
:100FC000028842F00102028004E002884FF6FE73BC
:100FD0001A400280704731B1B0F8442042F4004218
:100FE000A0F8442005E0B0F84420C2F30E02A0F8B7
:100FF000442070470146486A704702460020138A21
:101000000B400BB1012000E00020704770B50024B8
:1010100000220023058C4FF6FE7635400584028CB5
:101020008388048B4FF68F752C40B51E2C400D889D
:101030002C43751E2A408D892A434D882A43104D22
:10104000A84202D00F4DA84213D14FF6F7752A409F
:10105000CD892A434FF6FB752A408D882A434FF6E7
:10106000FF652B404FF6FF552B400D8A2B434D8AD1
:101070002B43838004838D684563028470BD000028
:1010800000000140000401400A460021018B4FF698
:10109000F7731940114301837047000070B50024B5
:1010A00000220023058C4FF6EF7635400584028C34
:1010B0008388048B48F6FF752C404FF6FF452C4083
:1010C0000D884FF6FF7606EA05252C434FF6DF75AF
:1010D0002A408D8906EA05152A434D8806EA05153A
:1010E0002A43154DA84202D0144DA8421DD14FF6F7
:1010F0007F752A40CD894FF6FF7606EA05152A430B
:101100004FF6BF752A408D8806EA05152A434FF62B
:10111000FF352B404FF2FF752B400D8A06EA8505FF
:101120002B434D8A06EA85052B43838004838D6813
:101130008563028470BD000000000140000401408E
:101140000A460021018B4FF2FF7319404FF6FF73DF
:1011500003EA0223194301837047000070B500249D
:1011600000220023058C4FF6FF6635400584028C73
:101170008388848B4FF68F752C404FF6FC752C407E
:101180000D882C434FF6FF552A408D894FF6FF7688
:1011900006EA05252A434D8806EA05252A43154D0A
:1011A000A84202D0144DA8421DD14FF2FF752A402B
:1011B000CD894FF6FF7606EA05252A434FF6FF351F
:1011C0002A408D8806EA05252A434EF6FF752B40F6
:1011D0004DF6FF752B400D8A06EA05152B434D8A07
:1011E00006EA05152B43838084838D68C5630284DA
:1011F00070BD000000000140000401400A460021CB
:10120000818B4FF6F77319401143818370470000BB
:1012100070B5002200230024058C4EF6FF76354081
:101220000584038C8488828B48F6FF752A404FF62C
:10123000FF452A400D884FF6FF7606EA05252A432A
:101240004DF6FF752B408D8906EA05352B434D88F9
:1012500006EA05352B430A4DA84202D0094DA842A3
:1012600008D14BF6FF752C400D8A4FF6FF7606EA43
:1012700085152C43848082838D680564038470BD4A
:1012800000000140000401400A460021818B4FF21A
:10129000FF7319404FF6FF7303EA0223194381835A
:1012A00070474163704781637047C1637047016451
:1012B0007047000000220288184B98420ED0184B4D
:1012C00098420BD0B0F1804F08D0164B984205D011
:1012D000154B984202D0154B984204D14FF68F73AC
:1012E0001A404B881A43124B984207D0114B984230
:1012F00004D04FF6FF431A400B891A4302804B6813
:10130000C3620B880385054B984202D0044B984278
:1013100001D18B7A0386012383827047000001404C
:10132000000401400004004000080040000C0040A0
:10133000001000400014004001464FF40030081A2D
:10134000C0F38F207047000000B502461046FFF73B
:10135000F3FF012101FA00F002490968084301493D
:10136000086000BD303802402DE9F04304460E46C7
:101370001546DDE907892046FFF7DEFFC7B20022E8
:1013800043E001209040304000B93CE0214830F873
:1013900017000121914008431E4921F81700E06819
:1013A0004FEA420C032101FA0CF18843510008FA7C
:1013B00001F10843E06020684FEA420C032101FA82
:1013C0000CF18843510005FA01F108432060012D1A
:1013D00001D0022D16D161680120904080B221EA2F
:1013E000000003FA02F189B208436060A0684FEA86
:1013F000420C032101FA0CF18843510009FA01F172
:101400000843A06000BF501CC2B2102AB9DBBDE87F
:10141000F0830000F80100202DE9FC4305460C464E
:1014200016461F46DDE909890CB9BDE8FC8328464C
:10143000FFF78AFF3B46324621462846CDE9008920
:10144000FFF792FF00BFF0E72DE9FC4705460E4687
:1014500017469846DDE90A9A0EB9BDE8FC8728468A
:10146000FFF772FF00241AE00120A040304000B9CD
:1014700014E0E10805F1200050F821006107CA0ED0
:101480000F21914088436107C90E0AFA01F1084310
:10149000E20805F1200141F8220000BF641C102C75
:1014A000E2D33B46022231462846CDE90089FFF7C8
:1014B0005BFF00BFD1E700001CB504464CB9042017
:1014C00001210B460A46CDE90010C0211148FFF763
:1014D000BBFF012C0AD1042001210B460A46CDE9AD
:1014E00000104FF440710B48FFF7AEFF022C0AD1F9
:1014F000042001210B460A46CDE900104FF410717B
:101500000448FFF7A1FF032C03D10421024800F097
:10151000F9F81CBD00040240005400401CB504460C
:1015200054B9042001210B460A46CDE900104FF4BE
:1015300040611148FFF788FF012C09D104200121E7
:101540000B460A46CDE9001003210C48FFF77CFF4B
:10155000022C09D1042001210B460A46CDE90010D6
:1015600030210748FFF770FF032C03D10421054801
:1015700000F0C8F81CBD0000000402400014024046
:10158000001C0240005800401CB504469CB90420D1
:1015900001210B460A46CDE9001081011048FFF7F2
:1015A00053FF042001210B460A46CDE90010C1017A
:1015B0000C48FFF749FF012C0AD1042001210B46FA
:1015C0000A46CDE900104FF4C0710748FFF73CFF11
:1015D000032C03D10421054800F094F81CBD000041
:1015E0000000024000080240001C0240005C004075
:1015F0007FB504460E4615463D48844221D13D48FC
:10160000006840F400103B4908603046FFF754FF83
:1016100039480068A84201D9374805603648006853
:1016200000904FF48040ADF80C000020ADF80400AD
:10163000ADF80800ADF80A004BF6FF70ADF80600F3
:1016400048E02E48844221D12A48006840F48000B6
:10165000284908603046FFF761FF27484068A842E4
:1016600001D9254845602448406800904FF48040E7
:10167000ADF80C000020ADF80400ADF80800ADF89E
:101680000A004BF6FF70ADF8060023E01C488442C8
:1016900020D11848006840F4000016490860304620
:1016A000FFF772FF14488068A84201D9124885608C
:1016B0001148806800904FF48040ADF80C00002085
:1016C000ADF80400ADF80800ADF80A004BF6FF7065
:1016D000ADF80600208820F00100208069462046F1
:1016E000FFF7F6F9208840F0010020807FBD000060
:1016F00000540040403802403400002000580040B0
:10170000005C0040704770B504460D46002601237A
:1017100000222946204600F09BF800B90126204609
:1017200000F0EEF8304670BD2DE9F04105460E465A
:10173000144600231A463146284600F089F821460F
:10174000284600F017F9284600F0DAF800230122B5
:101750003146284600F07CF8284600F053F807464A
:101760003846BDE8F081000070B50446208840F49A
:101770008060208044F620600A49086007E009483C
:101780000068401E0749086008B9012070BD06497D
:101790002046FFF716F90028F1D0208AC5B2284666
:1017A000F4E7000030000020400003002DE9F04184
:1017B0000746884615461C46069E012300224146E0
:1017C000384600F045F82946384600F0D3F80123A2
:1017D0001A464146384600F03BF80BE02EB9384631
:1017E00000F010F804F8010B04E03846FFF7BCFFE6
:1017F00004F8010B301EA6F101018EB2EED1BDE856
:10180000F081000070B50446208820F480602080BC
:10181000208840F40070208044F620600A49086067
:1018200007E009480068401E0749086008B9012020
:1018300070BD06492046FFF7C4F80028F1D0208A81
:10184000C5B22846F4E70000300000204000030045
:101850002DE9F04104460D4616461F46208840F407
:101860008070208044F620602349086008E0224808
:101870000068401E2049086010B90120BDE8F081D1
:10188000A08A00F001000028F1D01FB1208840F4A8
:1018900080602080A6B925F00100208244F62060F7
:1018A0001549086007E014480068401E12490860A6
:1018B00008B90120E2E7A08A00F002000028F2D077
:1018C000012E15D145F00100208244F620600A491E
:1018D000086007E008480068401E0749086008B92A
:1018E0000120CBE705492046FFF76BF80028F1D02F
:1018F000208B0020C2E7000030000020020003001F
:10190000014644F620600D4A106007E00B4800686D
:10191000401E0A4A106008B901207047888A00F00A
:1019200080000028F2D0888A00F004000028EDD062
:10193000088840F4007008800020EEE730000020A6
:101940002DE9F04106460F4614461D4600231A466F
:1019500039463046FFF77CFF2146304600F00AF852
:101960002946304600F006F83046FFF7C9FFBDE8CB
:10197000F081000044F62062084B1A6004E0074A38
:101980001268521E054B1A60828A02F080021AB950
:10199000024A1268002AF2D101827047300000200A
:1019A00070B504460E4646F0D00004F8440F1820E7
:1019B00060704E4A00214E48FFF71AFE14F8441991
:1019C0004B48FFF7A0FE08B9022070BD94F8441000
:1019D00075224748FFF7A8FE0546712D01D0022069
:1019E000F3E714F8441F00236B224148FFF7A8FFD8
:1019F000142002F093FE217801236B223C48FFF76C
:101A00009FFF142002F08AFE217803231A2238480F
:101A1000FFF796FF142002F081FE2178002319229F
:101A20003348FFF78DFF142002F078FE2178082359
:101A30001B222F48FFF784FF142002F06FFE21784D
:101A400000231C222A48FFF77BFF142002F066FEC9
:101A50002178222337222648FFF772FF142002F054
:101A60005DFE2178012338222148FFF769FF142009
:101A700002F054FE6178443C1D48FFF744FE08B96B
:101A80000220A2E73834617B00230A221848FFF7BE
:101A900057FF0A2002F042FE617B0F230A221448FE
:101AA000FFF74EFF0A2002F039FE617B00230A2275
:101AB0000F48FFF745FF0A2002F030FE617B162336
:101AC0000A220B48FFF73CFF0A2002F027FE9FED99
:101AD000090A84ED000A9FED080A84ED010A9FEDD2
:101AE000070A84ED020A383C00206EE7801A0600DF
:101AF00000580040CDCC1C3A00007A3C00E0BF3FCB
:101B00003EB504460620009094F8441001AB3B22F9
:101B10002048FFF74BFE9DF805009DF8041040EAB1
:101B2000012000B2A0849DF807009DF8061040EA4D
:101B3000012000B2E0849DF809009DF8081040EAF9
:101B4000012000B22085B4F9240000EE100AB8EE9E
:101B5000C00AD4ED0E0A20EE200A84ED000AB4F982
:101B6000260000EE100AB8EEC00AD4ED0E0A20EEF0
:101B7000200A84ED010AB4F9280000EE100AB8EE3C
:101B8000C00AD4ED0E0A20EE200A84ED020A0020DD
:101B90003EBD0000005800403EB5044606200090BF
:101BA00094F8441001AB43222348FFF7FFFD9DF852
:101BB00005009DF8041040EA012000B260851F492D
:101BC00008809DF807009DF8061040EA012000B249
:101BD000A0851B4908809DF809009DF8081040EA7F
:101BE000012000B2E08517490880B4F92A0000EE10
:101BF000100AB8EEC00AD4ED0F0A20EE200A84EDD8
:101C0000030AB4F92C0000EE100AB8EEC00AD4EDB5
:101C10000F0A20EE200A84ED040AB4F92E0000EE2B
:101C2000100AB8EEC00AD4ED0F0A20EE200A84EDA7
:101C3000050A00203EBD000000580040560000206C
:101C4000580000205A0000203EB5044694F8451084
:101C500002222A48FFF768FD054605F00100E0B3BF
:101C60000720009094F8451001AB03222348FFF7AA
:101C70009DFD9DF80A0000F0080070BB9DF804006F
:101C80009DF8051040EA012000B220869DF806006C
:101C90009DF8071040EA012000B260869DF8080018
:101CA0009DF8091040EA012000B2A086B4F9300086
:101CB00000EE100AB8EEC00AD4ED100A20EE200A99
:101CC00084ED060AB4F9320000EE100AB8EEC00A3C
:101CD000D4ED100A20EE200A00E00DE084ED070AA2
:101CE000B4F9340000EE100AB8EEC00AD4ED100AC0
:101CF00020EE200A84ED080A00203EBD0058004076
:101D000070B50F4800F0E8F80E490870032002F0A3
:101D100007FF054600240AE0291D51F8340001EBB5
:101D2000C4014B6807490A7803219847641C286856
:101D3000A042F1DC2021024800F02AF870BD00002A
:101D4000004C00402500002070B50F4800F0C4F89A
:101D50000E490870052002F0E3FE054600240AE063
:101D6000291D51F8340001EBC4014B6807490A787A
:101D700005219847641C2868A042F1DC2021024814
:101D800000F006F870BD000000140140240000209F
:101D900001F40072B2F5007F00D100BFCA43028097
:101DA000704721B1828942F40052828104E0828925
:101DB0004DF6FF731A4082817047F0B50346002448
:101DC00000260025002040F66A17B94200D100BF66
:101DD0001846C1F3421401F01F06012707FA06F561
:101DE000012C01D10C3004E0022C01D1103000E0B4
:101DF00014301AB107682F43076002E00768AF4349
:101E00000760F0BD2DE9FF4705460E460024A146B8
:101E100000BFA046B08900B100BF2C8A24F4405412
:101E2000F08804432C82AC8941F20C608443B08872
:101E300031890843718908430443AC81AC8A24F496
:101E40004074B0890443AC826846FEF74FFF2048D7
:101E5000854202D01F48854202D1DDF80C9001E096
:101E6000DDF80890A88900F4004040B109EBC900F2
:101E700000EB091031684900B0FBF1F707E009EB0E
:101E8000C90000EB091031688900B0FBF1F764204C
:101E9000B7FBF0F004012009642101FB1078A88948
:101EA00000F4004040B1322000EBC800B0FBF1F07C
:101EB00000F00700044308E0322000EB0810642122
:101EC000B0FBF1F000F00F0004432C81BDE8FF8768
:101ED000001001400014014001468888C0F308004A
:101EE000704700BFFEE703B401984100009850EA34
:101EF000C12018BF04204A0D18BF40F0010040F275
:101F0000FF72B2EB515F08BF40F00200012808BF2A
:101F1000052002B07047000030B528B1144C031FF3
:101F2000002021680A4605E0084630BD9A4203D8E1
:101F300010465268002AF9D1002800D041680BD021
:101F40000468A3EB0005A54204D11B681C440346AA
:101F5000046002E0436000E023603AB11C68D51AD7
:101F6000A54203D115682C441C6052685A6030BDEC
:101F70002C0100200000000070B5C1482DED020BBF
:101F80002DED0E8B82B0119D25F000449FEDBEDB40
:101F90009FEDBFEB84423EDBA4F140511098A1F1CC
:101FA0007F6108430FD0BC48844202DC28D11098DE
:101FB00030B39DED100B02B0BDEC0E8B02B0BDE84E
:101FC000704001F039BB9DED100B53EC1D2B51EC13
:101FD000100BFEF7C0F99DED100B41EC180B53EC04
:101FE0001E2B51EC100BFEF7B6F953EC182BFEF735
:101FF0000BF941EC100B02B0BDEC0E8B02B070BDC2
:10200000012001F06DFB02B0BDEC0E8B02B0BDE80B
:10201000704001F025BBA1489FEDA18B844256DAA8
:102020009DED100BB4F1795F0ADA51EC100BFFF75C
:102030005AFF042808BF01F033FB9DED100BDAE7CF
:1020400053EC102B51EC100BFEF785F941EC190BFA
:1020500095480621B0EE490AF0EE690A784401F08D
:102060002DFA53EC192B51EC100BFEF774F941ECDF
:102070001A0B8E48B0EE490AF0EE690A0421784442
:1020800001F01CFA53EC192B51EC100BFEF763F91D
:1020900053EC182BFEF7B8F841EC100B51EC1A0B6F
:1020A00053EC102BFEF7C9F9CDE900019DED000BB3
:1020B00053EC102B9DED100B51EC100BFEF74BF970
:1020C0009DED101B53EC112BFEF79EF8D2E09DED19
:1020D000100B51EC100B02F002FC53EC182BFEF726
:1020E00037F99FED730BCDE9000153EC102B9DEDFB
:1020F000000B51EC100BFEF72EF941EC190B6E485A
:102100000621B0EE490AF0EE690A784401F0D6F9EA
:1021100053EC192B51EC100BFEF71DF941EC1B0B86
:102120006648B0EE490AF0EE690A0421784401F0ED
:10213000C5F953EC192B51EC100BFEF70CF953ECCD
:10214000182BFEF761F841EC1C0B51EC190B03F056
:10215000D5FD41EC180B5A489FED5BABA04222DC49
:1021600053EC1C2B51EC1B0BFEF767F9CDE900017A
:102170009DED000B51EC180B53EC102BFEF7EBF818
:1021800053EC182BFEF740F853EC1A2BFEF7E3F84C
:1021900053EC1D2BFEF7D9F853EC1E2BFEF7D8F8A5
:1021A00041EC100B5FE08DED008B002000909DED69
:1021B000000B51EC180B53EC102BFEF725F89DED9E
:1021C000000B41EC1E0B53EC102B51EC100BFEF7E7
:1021D000C2F853EC192BFEF7BBF853EC1E2BFEF79D
:1021E0002CF941EC190B53EC1C2B51EC1B0BFEF79B
:1021F00024F941EC1B0B53EC1A2B51EC190BFEF795
:10220000AAF853EC1D2BFEF7A3F841EC190B53EC85
:102210001A2B51EC180BFEF79EF853EC1B2BFEF714
:102220009AF853EC192BFEF790F89DED000B41EC5A
:10223000180B53EC1A2B51EC100BFEF78CF89FED9A
:10224000249B53EC192BFEF783F841EC100B51EC57
:10225000180B53EC102BFEF778F853EC192BFEF704
:1022600077F841EC100B002D3FF7C5AE51EC100B89
:1022700081F0004141EC100BBDE6000000000000C1
:102280000000F03F00000000075C143326A6913CDC
:10229000182D4454FB21F93F0000F07F0000E03F7F
:1022A000000000000000F03F005100000E5100004F
:1022B000000000000000E03F5250000060500000AD
:1022C0003333EF3F0000000000000000000000403A
:1022D000182D4454FB21E93F70B59B482DED020BAE
:1022E0002DED068B079D25F00044A04218DC974891
:1022F000844202DC0AD1069840B19DED060BBDEC8C
:10230000068B02B0BDE8704001F096B9002DCCBF3D
:102310009FED8F0B9FED900BBDEC068B02B070BD57
:102320008F48A04215DD8F48A042D8BF4FF0FF3440
:1023300058DD9DED060B51EC100BFFF7D4FD042882
:1023400008BF01F0ADF99DED060BBDEC068B02B0A8
:1023500070BD9DED060B51EC100B02F0C0FACDE9FB
:10236000060181489FED828BA0423CDD8248A0425D
:102370001FDD00249FED82AB9DED060B53EC1A2B65
:1023800051EC100BFDF740FF9DED060B41EC190BD6
:1023900053EC1A2B51EC100BFDF7DDFF53EC182B0F
:1023A000FDF7D3FF53EC192BFEF747F8CDE90601F3
:1023B00049E09DED060B012453EC182B51EC100B5A
:1023C000FDF722FF9DED060B41EC190B53EC182B8A
:1023D00051EC100BFDF7B9FF53EC192BFEF72DF85C
:1023E000CDE906012FE06848A0421FDD02249FEDE1
:1023F000689B9DED060B53EC192B51EC100BFDF770
:10240000AAFF53EC182BFDF7FFFE9DED060B41ECE8
:10241000180B53EC192B51EC100BFDF796FF53ECF6
:10242000182BFEF70AF8CDE906010CE09DED060B2E
:10243000032453EC102B9FED580B51EC100BFDF7C0
:10244000FCFFCDE906019DED060B53EC102B51EC82
:10245000100BFDF780FF41EC180B53EC182BFDF728
:102460007AFF41EC190B4E480621B0EE490AF0EE16
:10247000690A784401F022F853EC182B51EC100B48
:10248000FDF769FF41EC180B4648B0EE490AF0EE43
:10249000690A0521784401F011F853EC192B51EC2D
:1024A000100BFDF758FF41EC100B51EC180B53ECDF
:1024B000102B002C0EDAFDF7A7FE9DED061B53EC4A
:1024C000112BFDF748FF9DED061B53EC112BFDF77B
:1024D0003FFF35E0FDF798FE9DED061B53EC112BF9
:1024E000FDF739FF41EC100B2F48784400EBC40096
:1024F00090ED001B51EC100B53EC112BFDF725FF59
:102500009DED061B53EC112BFDF71FFF41EC100B4B
:102510002648784400EBC40090ED001B51EC100BF2
:1025200053EC112BFDF714FF41EC100B002DA2BF53
:10253000BDEC068B02B070BD51EC100B81F0004178
:1025400041EC100B01E70000000010440000F07F98
:10255000182D4454FB21F93F182D4454FB21F9BF99
:102560000000DC3F0000203E0000F33F00000000C0
:10257000000000000000F03F0000E63F0000000007
:102580000000000000000040008003400000000048
:10259000000000000000F83F000000000000F0BF55
:1025A0002A4E0000E04D00006A4D0000224D000060
:1025B00070B56B4E2DED040B2DED028B82B0DDF866
:1025C0001CC0DDE905235C422CF000411C4341EABC
:1025D000D474049D22F00040B44205D86C422C43D0
:1025E00040EAD474B4420BD99DED061B9DED040B5B
:1025F00002B0BDEC028B04B0BDE8704001F026B81B
:10260000ACF14054A4F17F641C430BD0022404EAD3
:10261000AC7444EAD27405439FED538B9FED542B69
:1026200007D015E09DED040B51EC100B01F0C8F83C
:1026300042E0002C11BF012C9DED040B02B0BDEC5B
:10264000028B04BF04B070BD022C38D0032C3BD0E9
:102650000B439FED491B9FED4A0B0AD0B14218D1A5
:10266000B04209D121F0804120F0804007910590CF
:102670000FE0002A15DA10E0434B7B44002C08BF22
:1026800093ED000B0DD0012C10D0022C17D0032C91
:102690001AD0B0421DD1002A03DAB0EE410AF0EEA2
:1026A000610A02B0BDEC028B04B070BD93ED000B6B
:1026B00051EC100B81F0004141EC100BF1E7B0EE52
:1026C000480AF0EE680AECE7B0EE420AF0EE620A61
:1026D000E7E7401A00153C28C8BF8DED000B19DC58
:1026E000BCF1000FBEBF10F13C0F9FED290B8DED2B
:1026F000000B0FDB9DED060B53EC102B9DED040B37
:1027000051EC100BFDF799FE02F0E9F801F058F8D2
:10271000CDE90001002C08BF9DED000BC1D0012CBC
:1027200010D0022C9FED1C0B53EC102B9DED000BD9
:1027300051EC100B0DD0FDF708FE53EC182BFDF7F4
:1027400004FEB9E7019880F0004001909DED000B78
:10275000A7E7FDF7FAFD53EC182BFDF7F9FDABE702
:102760000000F07F00000000182D4454FB210940B8
:10277000182D4454FB2109C0182D4454FB21F9BFE6
:10278000182D4454FB21F93F524C0000000000007A
:102790000000000000000000075C143326A6A13CE6
:1027A0002DED020B019820F0004001909DED000BF3
:1027B00002B07047000000002DE9F04D2DED040B34
:1027C0002DED0E8B96B0DDE92550279CDDF890A00D
:1027D00025F0004624F00048BAF1000F14BF012193
:1027E000002101EB4502FC4953184A1093422AD3B9
:1027F000002814BF0123002303EB44030B44F749D3
:102800008B4220D358EA00019FEDF59B76D0DFF88C
:10281000D8B35D4503D1BAF1000F05D188E0BAF114
:10282000000F08BF002100D0012101EB450111F587
:10283000001F08D8002814BF0121002101EB44012A
:1028400011F5001F0BD99DED261B9DED240B16B035
:10285000BDEC0E8B04B0BDE8F04D00F0F7BE0027D4
:10286000002DBCBFE149884521DAE1498845A8BF70
:1028700002271CDAC3451ADCDE4901EB2851142972
:1028800008DDC1F1340220FA02F101FA02F28242BB
:102890000DD108E058B9C1F1140228FA02F101FA89
:1028A00002F2424503D101F00101C1F1020756EAEB
:1028B0000A0124D1002C22DA002D18BF022F01D0EA
:1028C000012F0AD0022000F00BFF16B0BDEC0E8BDA
:1028D00004B0BDE8F04D00F097BE022000F000FF0C
:1028E00000F092FE51EC100B81F0004141EC100B16
:1028F00016B0BDEC0E8B04B0BDE8F08D18E09FED76
:10290000BEAB9FEDBF8B002871D1B848804522D166
:1029100005F1804010F5801008BFBAF1000F07D014
:10292000B3450ADC002CA8BF9DED260BE0DA0DE0D4
:10293000B0EE490AF0EE690ADAE7002C06DA9DEDFE
:10294000260B51EC100B81F000416FE0AE4878444B
:1029500090ED000BCCE7D8454DD1002C48DA2EB1D4
:1029600086423AD1BAF1000F42D126E0BAF1000F07
:1029700013D0022000F0B4FE00F082FE8DED020BB9
:102980009DED240B8DED000B10EE900A039961F381
:102990001E0003909DED020BAAE78DED02AB9DEDAD
:1029A000240B1AEE901A10EE900A8DED000B61F3D5
:1029B0001E0003909DED020B9AE78DED028B9DEDBD
:1029C000240B18EE901A10EE900A8DED000B61F3B7
:1029D0001E0003909DED020B8AE709DA9DED240BA2
:1029E00051EC190B53EC102BFDF727FD1EE020E0F6
:1029F0009DED240B7CE786421BDAB4F1804F0DD0AD
:102A0000A4F10050B0F1FF5013D1002D11DB9DED6A
:102A1000240B51EC100B03F071F907E09DED240B32
:102A200053EC102B51EC100B00F0C2BC41EC100B1E
:102A30005EE79DED240B51EC100B01F050FFBAF155
:102A4000000FCDE90E0142D19FED710B46B3A6F107
:102A5000E040B0F17F600CD05E4538D1002D00DA47
:102A6000A7B3022F0CBF01204FF0FF30FDF7CFFEC0
:102A7000DCE7002D01DD002C0DDA002D01DD002C3E
:102A80001FDB002D16DA002C14DB012F08BF9FED91
:102A9000620B3FF42DAFB0EE4A0AF0EE6A0A27E768
:102AA000022F18BF002D0CD0012F0AD1002DFFF6E8
:102AB0001FAF06E0002DB8BF002C08DA012F3FF44D
:102AC00017AFB0EE480AF0EE680A11E71BE00120EC
:102AD00000EBE57050EA070115D0791EB0EE498A87
:102AE000F0EE698A084308BF9FED4D8B4E480025E4
:102AF000804570DD4D494E48884514DDB0420DDB00
:102B0000002C19DB2FE0012000F0EAFD16B0BDEC2F
:102B10000E8B04B0BDE8F04D00F0A2BDB34502DC61
:102B2000002C09DC1FE0864202DA002C1BDA03E0ED
:102B30005E452BDD002C16DD022000F0D1FD00F0FB
:102B40009FFD8DED020B53EC1A2B51EC180BFDF78A
:102B500002FCCDE900010399019861F31E00039086
:102B60009DED020BC4E6022000F0BAFD00F098FDD6
:102B700010EE901A18EE900A8DED020B8DED008B81
:102B800061F31E0003909DED020BB1E69DED0E0B6F
:102B900053EC192B51EC100BFDF7D7FB9FED260BD7
:102BA000CDE9080153EC102B9DED080B51EC100BF7
:102BB000FDF7D1FB9FED221B53EC112BFDF7C8FB5A
:102BC0009DED081B53EC112BFDF7C5FB9FED1E1B64
:102BD00053EC112B3CE08CE0FFFF1F00FFFF0F00C8
:102BE000000000000000F03F0000F03F0000F07F18
:102BF0000000404301FCFFFF000000000000F07FE8
:102C000000000000000000007E49000000000000FD
:102C10000000000000000080000000000000F0FF45
:102C2000000000000000F0BF0000E0410000F043A1
:102C3000FFFFEF3F00000000000000000000D03F59
:102C4000555555555555D53F000000000000E03F53
:102C5000FDF77EFB9DED080B41EC1A0B53EC102B9E
:102C600051EC100BFDF777FB53EC1A2BFDF773FBC0
:102C700041EC1A0B9FEDFE0B53EC102B9DED080B56
:102C800051EC100BFDF767FB41EC1B0B9FEDFA0BB2
:102C900051EC1A0B53EC102BFDF75DFB41EC1A0BBA
:102CA0009FEDF70B53EC102B9DED080B51EC100B27
:102CB000FDF751FB53EC1A2BFDF747FB41EC1A0BC8
:102CC00051EC1B0B53EC1A2BFDF79EFA0690CDE945
:102CD00006519DED060B53EC1B2B51EC100BFDF731
:102CE00034FB53EC1A2BFDF733FB41EC100B00F0D7
:102CF000A1B90020B6F5801F0EDA9FEDE30B53EC6F
:102D0000102B9DED0E0B51EC100BFDF724FBCDE9C4
:102D10000E016FF034000E4600EB2650A0F2FF3794
:102D2000C6F31300DA4940F07F6646F04056884209
:102D3000D8BF002408DDD7498142C8BF012403DC85
:102D40000024A6F580167F1CD348784400EBC4000D
:102D50000F9690ED00CB9DED0E0B53EC1C2B51EC20
:102D6000100BFDF7F2FA9DED0E0B41EC1B0B53EC33
:102D70001C2B51EC100BFDF747FA41EC100B51ECFA
:102D8000190B53EC102BFDF758FB41EC1D0B51ECCC
:102D90001B0B53EC1D2BFDF7DEFA41EC1A0BBF4861
:102DA0008DED10AB7844109590ED000B4FF0005076
:102DB00040EA660000EB84408DED080B00F5002032
:102DC00009909DED080B53EC1C2B51EC100BFDF7FB
:102DD000BCFA9DED0E1B53EC112BFDF7B9FA41EC3B
:102DE000100B53EC102B9DED100B51EC100BFDF75D
:102DF000B2FA9DED080B41EC1C0B53EC102B9DED32
:102E0000100B51EC100BFDF7A6FA53EC1B2BFDF742
:102E10009FFA53EC1C2BFDF798FA53EC1D2BFDF792
:102E20009AFA41EC1C0B53EC1A2B51EC1A0BFDF7E0
:102E300092FA41EC1B0B9A480621B0EE4B0AF0EED9
:102E40006B0A784400F03AFBB0EE401AF0EE601ADC
:102E5000B0EE41DAF0EE61DA53EC1B2B51EC1B0BB8
:102E6000FDF779FA53EC1D2BFDF775FA9DED100B6C
:102E700041EC1B0B53EC1A2B51EC100BFDF7C4F972
:102E800053EC1C2BFDF767FA53EC1B2BFDF7BCF939
:102E90009DED100B41EC1B0B53EC102B51EC100B68
:102EA000FDF759FA41EC1D0B9FED7FEB53EC1E2B08
:102EB000FDF7AAF953EC1B2BFDF7A6F90890CDE915
:102EC00008519DED080B53EC1E2B51EC100BFDF738
:102ED0003CFA53EC1D2BFDF738FA53EC1B2BFDF796
:102EE00037FA9DED080B41EC1D0B53EC102B9DEDBB
:102EF000100B51EC100BFDF72EFA41EC1B0B53ECB1
:102F00001A2B51EC1D0BFDF726FA9DED080B41EC39
:102F10001A0B53EC102B51EC1C0BFDF71CFA53EC65
:102F20001A2BFDF771F941EC1A0B51EC1B0B53EC0A
:102F30001A2BFDF769F90C90CDE90C519DED0C0BA6
:102F400053EC1B2B51EC100BFDF7FFF953EC1A2B34
:102F5000FDF7FEF941EC1B0B9FED550B53EC102BCD
:102F60009DED0C0B51EC100BFDF7F5F941EC1A0B34
:102F70009FED510B51EC1B0B53EC102BFDF7EBF9B4
:102F800041EC1B0B9FED4E0B53EC102B9DED0C0BEE
:102F900051EC100BFDF7DFF953EC1B2BFDF734F967
:102FA00041EC100B4848784400EBC40090ED001B46
:102FB00051EC100B53EC112BFDF726F941EC1B0BD8
:102FC0003846FDF724FCCDE9080153EC1B2B51ECEE
:102FD0001A0BFDF719F941EC100B3C48784400EB53
:102FE000C40090ED00CB51EC100B53EC1C2BFDF703
:102FF0000BF99DED081B53EC112BFDF705F906901D
:10300000CDE906519DED080B53EC102B9DED060B01
:1030100051EC100BFDF799F953EC1C2BFDF795F9CA
:1030200053EC1A2BFDF791F953EC1B2BFDF790F99C
:1030300041EC100B9DED261B53EC102B8DED001B6E
:1030400000959DED260B51EC100BFDF784F99DEDDD
:10305000000B41EC1A0B53EC102B9DED260B51ECA1
:10306000100BFDF772F99DED061B53EC112B2FE0B1
:10307000000000604715F73FFE822B654715F73FBC
:1030800044DF5DF80BAE543E0000000000004043FA
:103090008E9803007AB60B006244000028450000B9
:1030A0009A430000000000000000000000000840FB
:1030B000000000E009C7EE3FFD033ADC09C7EE3F20
:1030C000F5015B14E02F3EBE26420000E041000007
:1030D000FDF741F953EC1A2BFDF796F89DED060B21
:1030E00041EC1A0B53EC102B9DED000B51EC100B27
:1030F000FDF731F9CDE90C019DED0C0B51EC1A0BEC
:1031000053EC102BFDF780F8CDE902010C46AA49DB
:103110008C422FDB611A084318D19DED0C0B53EC48
:10312000102B9DED020B51EC100BFDF70EF941EC4D
:103130001B0B9FEDA30B51EC1A0B53EC102BFDF75F
:1031400063F853EC1B2BFDF711FA2DD2022000F08F
:10315000C7FA00F095FA10EE901A18EE900A8DED6D
:10316000020B8DED008B61F31E0003909DED020BB1
:10317000FFF7BEBB944A24F00041914214D3934917
:10318000214408437FF4EFAC9DED0C0B53EC102B66
:103190009DED020B51EC100BFDF7D7F853EC1A2BF9
:1031A000FDF7E4F97FF6DFAC24F000408849894A56
:1031B000002601EB205182422BDA481C4FF480118B
:1031C00021FA00F02044844AC0F30A517A44A1F263
:1031D000FF3192ED000B814A8DED080BCA4020EAC9
:1031E0000202C0F3130040F48010C1F1140120FA70
:1031F00001F60992002CB8BF76429DED080B53EC06
:10320000102B9DED0C0B51EC100BFDF79EF8CDE94A
:103210000C019DED0C0B51EC1A0B53EC102BFCF731
:10322000F3FF9FED6F0B0890CDE9085153EC102B85
:103230009DED080B51EC100BFDF78DF841EC1B0BCD
:103240009FED690B53EC102B9DED080B51EC100B0F
:10325000FDF781F89DED0C0B41EC1C0B53EC102B92
:103260009DED080B51EC100BFDF76FF853EC1A2B8A
:10327000FDF76EF89FED5E1B53EC112BFDF76BF81D
:1032800053EC1C2BFCF7C0FF41EC1A0B51EC1B0B51
:1032900053EC1A2BFCF7B8FFCDE902019DED020BB0
:1032A00053EC1B2B51EC100BFDF74FF853EC1A2B82
:1032B000FDF74EF89DED020B41EC1A0B53EC102B71
:1032C00051EC100BFDF747F8CDE908014A489DED98
:1032D000080B0521784400F0F1F89DED081B51EC36
:1032E000100B53EC112BFDF736F89DED021B53EC40
:1032F000112BFDF72DF8CDE906019DED020B53ECE6
:103300001A2B51EC100BFDF726F853EC1A2BFCF797
:103310007BFF9FED3B0B41EC1A0B53EC102B9DED0B
:10332000060B51EC100BFDF710F89DED060B41EC70
:103330001B0B53EC102B9DED020B51EC100BFDF70A
:103340000AF853EC1B2BFDF778F853EC1A2BFCF71B
:10335000FCFF9DED021B53EC112BFCF7F6FF53EC29
:10336000192BFCF7F5FFCDE9020101EB0650011521
:103370000029C8BF039015DC9DED020B324651ECCD
:10338000100BFDF7DCF9FEF7AEFD042808BF00F0D6
:1033900087F932469DED020B51EC100BFDF7CFF98A
:1033A000CDE902019DED020B51EC180B53EC102BF3
:1033B000FCF7D1FFFFF73ABB00009040000000008F
:1033C000FE822B654715973C00CC904000346F3F40
:1033D00001FCFFFF0000E03F00410000FFFF0F0085
:1033E00000000000432EE63F396CA80C615C20BE53
:1033F000EF39FAFE422EE63F383F000000000000A1
:10340000000000000000004000B52DED048BB0EE80
:10341000409AF0EE609A83B051EC190BFDF7A6F9D3
:1034200041EC180B18EE100A18EE901A8DED008B77
:10343000002818BF0120084320F00040C0F17F6041
:1034400000F1E040C00F14D019EE101A19EE900AE6
:103450008DED009B002918BF0121084320F000409A
:10346000C0F17F6000F1E040C00F04BF012000F018
:1034700037F9B0EE480A03B0F0EE680ABDEC048BF1
:1034800000BD10B52DED028BB1EEC08A18EE100A0A
:1034900020F00040C0F1FF40C00F0AD010EE100A2B
:1034A00020F00040C0F1FF40C00F04BF012000F039
:1034B00017F9B0EE480ABDEC028B10BD70B504469A
:1034C0002DED028B4D1E00EBC500B0EE408AF0EEF4
:1034D000608A90ED000B35F0060017D053EC182BE6
:1034E00051EC100BFCF737FF41EC100B6D1E04EB99
:1034F000C50090ED001B51EC100B53EC112BFCF7A9
:1035000083FE41EC100B35F00600E7D1022D36D0DA
:10351000042D1CD0062D1CBFBDEC028B70BD53ECDE
:10352000182B51EC100BFCF716FF94ED0A1B53EC13
:10353000112BFCF769FE53EC182BFCF70CFF94EDF4
:10354000081B53EC112BFCF75FFE41EC100B53EC06
:10355000182B51EC100BFCF7FEFE94ED061B53EC00
:10356000112BFCF751FE53EC182BFCF7F4FE94EDF5
:10357000040B53EC102BFCF747FE41EC100B53EC03
:10358000182B51EC100BFCF7E6FE94ED021B53ECEC
:10359000112BFCF739FE53EC182BFCF7DCFE94EDF5
:1035A000001B53EC112BFCF72FFEBDEC028B41EC02
:1035B000100B70BD2DE9F04782460F4C10480D4EA0
:1035C0000E4F001B4FF0000820F007054FF00109D7
:1035D00000221146504601F017FE002802D1306843
:1035E00010B10020BDE8F0873C60C4E90058C6F87F
:1035F0000090EDE730010020BC0700202C010020E6
:10360000B8070220000000009FED070B10B553EC37
:10361000102B9FED070B51EC100BFCF70EFF41EC4C
:10362000100B10BD000000000000000000000000B2
:10363000000000000000F03F10B553EC102B51ECDF
:10364000100BFCF7E1FD41EC100B10BD10B553EC75
:10365000112B51EC100BFCF7D7FD41EC100B10BDFA
:103660009FED050B10B553EC102B51EC100BFCF734
:10367000E4FE41EC100B10BD000000000000000053
:103680009FED050B10B553EC102B51EC100BFCF714
:1036900062FE41EC100B10BD000000000000007045
:1036A0009FED050B10B553EC102B51EC100BFCF7F4
:1036B00052FE41EC100B10BD000000000000001095
:1036C00002E008C8121F08C1002AFAD170477047EB
:1036D000002001E001C1121F002AFBD17047000049
:1036E00001490860704700003401002013B504460A
:1036F000012201A9204600F001F81CBD2DE9F0418E
:1037000004460F461646204601F0CDFD08B1BDE83F
:10371000F081A06885196068A84202DA204601F0AD
:10372000B7F86068A84208DA204601F08AFAA6EBEA
:1037300000084146204602F02CF9A268216888184A
:1037400032463946FCF74EFD6068A84201DA6068EF
:1037500000E02846A06000BFD9E707B50346196816
:103760001869884201D101200EBDBDF904105868C6
:1037700008445860BDF90610986808449860BDF97F
:103780000810D8680844D8601869401C18610020E7
:10379000EAE7000000B58FB000BF084802F0B4FCB3
:1037A0000028FAD03822054910316846FCF71AFD86
:1037B00002480FC801F0D4F90FB000BD1007002077
:1037C00010B541EC100BFEF787FD51EC100B10BD4E
:1037D00010B52DED028B0446B0EE408A94ED090A37
:1037E00038EE400AD4ED020A20EE200AF0EE408ABC
:1037F00094ED050AF0EE400AB0EE680A00F047FDCD
:10380000F0EE408A84ED098AB0EE680ABDEC028BC6
:1038100010BD10B52DED028B0446B0EE408A94ED3C
:10382000061AF0EE410A94ED081A31EE481AB0EE8D
:10383000410A00F02CFDBDEC028B10BD10B58CB020
:10384000044600BF032000F069FF144801F036FF72
:103850001248C1680091006914221049019003A820
:10386000FCF7C0FC08A803A90EC901F000FADDE9C5
:103870000801CDE90A010A48DDE90A12FFF76DFFE8
:103880000028DFD00649D1E90301CDE90001044851
:103890000EC8204601F018F90CB010BD6C070020CE
:1038A0005807002010B52DED028B0446B0EE408A7B
:1038B00094ED0A0AD4ED010A00EE880AF0EE408A7F
:1038C00094ED040AF0EE400AB0EE680A00F0DFFC66
:1038D00084ED0A0ABDEC028B10BD000000B52DED91
:1038E000048B87B00F48006808B900F07DFF01A87D
:1038F00001F07EF801A807C804AB07C39DED049A48
:1039000001F038F8B0EE408A01F0C2F9F0EE408ADA
:10391000F0EE480A02F0C0FD39EE000A07B0BDEC37
:10392000048B00BD0C01002010B52DED028B044668
:10393000B0EE408A94ED000A20EE080AF0EE408ACC
:1039400094ED030AF0EE400AB0EE680A00F09FFC26
:10395000BDEC028B10BD000010B52DED0A8B0446A6
:1039600094ED030A10EE101A0846FCF7EBFD41EC4B
:103970001C0B9FED170B53EC102BFCF75EFD41EC7D
:103980001B0B9FED151BB0EE4B0AF0EE6B0AFEF71A
:1039900013FFB0EE40AAF0EE60AA9FED110B53ECBE
:1039A000102B51EC1A0BFCF7D3FC41EC190B9FEDDB
:1039B0000E0B53EC102BFCF7CEFC41EC180BFCF774
:1039C000EDFD00EE100A84ED050ABDEC0A8B10BD7A
:1039D0000000000000AA8F4000000060955BC83F17
:1039E000000000000000F03F0000000040A5E5409E
:1039F0002DE9F05F8046B8F80810D8F81800A0EB61
:103A00000129B8F802100020000440EA11400A041D
:103A1000B8F8061000234FEAE97CA1FB09AB03FBD1
:103A200009B301FB0C334FEADA1141EA4361541840
:103A300040EBE315B8F800104FF000004FEAC0303B
:103A400040EA51404FEAC132B8F804104FF0000389
:103A50004FEAE97AA1FB09CB03FB09B301FB0A3367
:103A60004FEA1C2141EA0361561840EB23274FF02F
:103A70000001B446D8F81C00A0FB0CAE01FB06E127
:103A800000FB07114FEA5A5040EAC12C4FEA61503F
:103A9000BCEB040160EB050CC80B40EA4C424FEA5A
:103AA000EC311046FCF738FD00EE100ADFED040A99
:103AB00080EE201A88ED031A98ED030ABDE8F09F06
:103AC0000000C84231B52DED040B2DED028BB0EE98
:103AD000408A0446B0EE480A0421204602F03CF831
:103AE0009DED030ADDED040A30EE600ADDED050A06
:103AF00030EE200AD4ED000A30EE200A84ED000AF0
:103B00009DED030AB1EE400ADDED040A30EE200A15
:103B1000DDED050A30EE200AD4ED010A30EE200A70
:103B200084ED010A9DED030AB1EE400ADDED040AC1
:103B300030EE600ADDED050A30EE600AD4ED020ACF
:103B400030EE200A84ED020A9DED030ADDED040A41
:103B500030EE200ADDED050A30EE600AD4ED030AEE
:103B600030EE200A84ED030A002510E004EB850006
:103B7000D0ED000AB0EE600A9FED081ADFED080AEA
:103B800000F0C7FB04EB850080ED000A6D1C042DDE
:103B9000ECDBBDEC028B05B030BD00000080ED44D5
:103BA0000080894403898269A2EB032142894A4348
:103BB0004FF4FA6303EBE252642392FBF3F200EE5C
:103BC000102AB8EEC00A80ED040A90ED040A70478E
:103BD0000FB430B5DDE90F5400202BE005EB800178
:103BE00091ED000A0CA901EB8001D1ED000A30EE45
:103BF000600A04EB800181ED000A002117E000EB70
:103C0000400203AB03EB820202EB8102D2ED000A19
:103C100005EB810292ED001A04EB800292ED000A9E
:103C200000EE810A04EB800282ED000A491C0329A0
:103C3000E5DB401C0328D1DB30BC5DF814FB0FB47E
:103C40002DED040B00B591B00EA89DED141ADDED1D
:103C5000130A9DED120A00F004FD0BA80EA9202204
:103C6000CDE908101AA96846FCF7BCFA16A80FC8D7
:103C7000FFF7AEFF0BA800F061FB8DED080ACDED5C
:103C8000090A8DED0A1A9DED080ADDED090A9DED80
:103C90000A1A11B05DF824FB0FB438B50446BDF81C
:103CA0001800ADF800002046059BDDE9071202F080
:103CB00029F938BC5DF814FB10B500F04DFD02F099
:103CC00055FC00F08DFD10BD10B50648006800B130
:103CD00010BD01200349086000210348FDF760FE84
:103CE00000BFF5E750000020A003002010B52DED27
:103CF000028BB0EE408A00F08BFE05494860B0EEC2
:103D0000480A044801F0DCFFBDEC028B10BD000046
:103D10008C0500207804002010B52DED028BB0EE4C
:103D2000408A00F075FE05490860B0EE480A044874
:103D300001F0C6FFBDEC028B10BD00008C05002019
:103D40004804002010B52DED028BB0EE408A00F043
:103D50005FFE05498860B0EE480A044801F0B0FFF4
:103D6000BDEC028B10BD00008C050020A8040020D3
:103D700010B501F0DDFA08B9002010BD02F05CF8C2
:103D80000120FAE710B5044694E8070001F098FA1C
:103D900008B9002010BD606800F0D7F9A16888421A
:103DA00004D9204601F0D0FE0120F3E70020F1E71E
:103DB00010B500F009F820B100F02AF808B1012090
:103DC00010BD0020FCE7000000B58DB001F098FAAE
:103DD000D0B101A800F00CFE01A807C807AB07C3CB
:103DE0009DED070ADFED090AB4EEE00AF1EE10FAE4
:103DF0000ADD04A800F0FCFD04A807C80AAB07C34D
:103E000011B901200DB000BD0020FBE70000AF4458
:103E100000B59FB001F074FAF0B301A800F0E8FD1E
:103E200001A807C810AB07C39DED100ADFED1C0AFF
:103E3000B4EEE00AF1EE10FA2FDD04A800F0D0FD98
:103E400004A807C813AB07C331BB07A800F0C8FD1F
:103E500007A807C816AB07C39DED160AB5EEC00A42
:103E6000F1EE10FA19D10AA800F0B2FD0AA807C8AD
:103E700019AB07C381B90DA800F0AAFD0DA807C8AA
:103E80001CAB07C39DED1C0AB5EEC00AF1EE10FA9B
:103E900003D101201FB000BDFFE70020FAE70000BA
:103EA0000080BB4400B587B001F02AFA12490860CF
:103EB00001A800F09DFD01A807C804AB07C39DED54
:103EC000040A0E4880ED000A01F01AFA90B101A828
:103ED00000F08EFD01A807C804AB07C39DED040ADE
:103EE000DFED070AB4EEE00AF1EE10FA02D201208B
:103EF00007B000BD0020FBE7180100201C010020D6
:103F0000000096440146087A40B1086820B9086864
:103F100020B94868002801DB012070470020FCE739
:103F200000B587B001F0ECF91249086001A800F073
:103F30005FFD01A807C804AB07C39DED040A0E4846
:103F400080ED000A01F0DCF990B101A800F050FD0D
:103F500001A807C804AB07C39DED040ADFED070AFB
:103F6000B4EEE00AF1EE10FA02DD012007B000BD68
:103F70000020FBE7180100201C01002000009644EF
:103F800070B504460D4694E8070001F099F918B998
:103F90002946204600F03AFF2046FFF7F3FE70BDA9
:103FA00010B5044604F10C00FFF7ECFE28B104F153
:103FB0000C0000F0D5FB012010BD0020FCE7000044
:103FC0009FED0F2AB4EEC20AF1EE10FA16D29FED61
:103FD0000C2AF4EEC20AF1EE10FA0FD29FED082A75
:103FE000B4EEC21AF1EE10FA08D29FED052AF4EEF3
:103FF000C21AF1EE10FA01D2012070470020FCE74E
:104000000080894410B52DED048B01F079F920B3BF
:1040100000F0D4FCB0EE408A00F0C6FCF0EE408A1E
:1040200000F0B8FCB0EE409A00F0AAFCF0EE409A26
:10403000F0EE481AB0EE681AF0EE490AFFF7C0FF3A
:1040400058B10B490B48FFF79BFF70B1094800F0CE
:1040500087FB0120BDEC048B10BD064807C801F0AA
:104060002FF910B1034800F07BFB0020F2E70000BD
:1040700040420F00F80600209FED0F2AB4EEC20A5E
:10408000F1EE10FA16DD9FED0D2AF4EEC20AF1EE04
:1040900010FA0FD29FED092AB4EEC21AF1EE10FA0F
:1040A00008D29FED052AF4EEC21AF1EE10FA01DDF6
:1040B000012070470020FCE70080ED440080894427
:1040C00010B52DED048B01F011F920B300F076FC52
:1040D000B0EE408A00F068FCF0EE408A00F05AFC36
:1040E000B0EE409A00F04CFCF0EE409AF0EE481A28
:1040F000B0EE681AF0EE490AFFF7BEFF58B10B495F
:104100000B48FFF73DFF70B1094800F029FB012083
:10411000BDEC048B10BD064807C801F0D1F810B102
:10412000034800F01DFB0020F2E7000040420F00B2
:104130000407002000B50246104601F0B4F800B1B3
:1041400000BD0020906000BFFAE710B5044600F003
:104150005FFC001B10BD10B5FFF7B6FD0A2000F094
:10416000DDFA10BD10B586B0044601210846FCF703
:104170007DFD00208DF8160001208DF8170002202B
:104180008DF81400032004908DF8150004A912483E
:10419000FCF79EFB082201210F48FCF7E1FB0822F7
:1041A00000210D48FCF7DCFB0121C804FCF76EFD83
:1041B00000940020ADF80400ADF80600ADF808004A
:1041C000ADF80C000C20ADF80A0069460348FDF775
:1041D00019FE06B010BD000000000240004C004077
:1041E00010B586B0044601210420FCF73FFD0020F5
:1041F0008DF8160001208DF8170002208DF81400AC
:10420000C020049003208DF8150004A91148FCF784
:104210005FFB082206210F48FCF7A2FB08220721BA
:104220000C48FCF79DFB01212020FCF74FFD00947A
:104230000020ADF80400ADF80600ADF80800ADF8B8
:104240000C000C20ADF80A0069460348FDF7DAFDC2
:1042500006B010BD0008024000140140F8B5074642
:104260000C4615461E462846FCF7F4FC8DF8004027
:104270008DF8026001208DF803006846FCF7AEFC63
:10428000012240F225513846FDF797FDF8BD10B5E3
:104290002DED0A8BF0EE408AB0EE608A18EE100A1F
:1042A000FCF750F941EC1B0BB0EE4B0AF0EE6B0A39
:1042B000FEF776FAB0EE40AAF0EE60AA51EC1A0BC7
:1042C000FCF76CF909EE100A18EE100AFCF73AF93F
:1042D00041EC1C0BB0EE4C0AF0EE6C0AFEF760FAF3
:1042E000B0EE40BAF0EE60BA51EC1B0B81F0004129
:1042F00041EC1A0BFCF752F909EE900AB0EE491A9C
:10430000F0EE690AB0EE680A00F003F8BDEC0A8B23
:1043100010BDF0EE401AF4EEC11AF1EE10FA02DD13
:10432000B0EE410A7047F4EEE01AF1EE10FA02D254
:10433000B0EE600AF6E7B0EE610AF3E70EB590ED75
:10434000000A8DED000A90ED010A8DED010A90ED55
:10435000020A8DED020A9DED000ADDED010A9DEDD8
:10436000021A0EBD0CB50A88ADF800204A88ADF8D7
:1043700002208A88ADF80420009A0260BDF804206B
:1043800082800CBDF7B52DED0A0B06460C4615468E
:10439000DFED241A9DED081ADDED070A9DED060AF2
:1043A00001F034FC8DED060ACDED070A8DED081AFB
:1043B0009DED051ADDED040A9DED030A01F01AF8E2
:1043C0008DED030ACDED040A8DED051A9DED021A5F
:1043D000DDED010A9DED000A01F00CF88DED000AFB
:1043E000CDED010A8DED021A28469DED081ADDED8E
:1043F000070A9DED060A00F034F920469DED051AE6
:10440000DDED040A9DED030A00F02BF930469DED29
:10441000021ADDED010A9DED000A00F022F90DB04F
:10442000F0BD000033FA8E3C9FED061AC0EE010A83
:104430009FED051A60EE810AFCEEE00A10EE900A8C
:10444000704700000000FA4400409C4600B589B067
:104450005148006808B109B000BD01204E4908600C
:104460004E48C1680091006914224C49019002A88D
:10447000FBF7B8FE07A802A90EC900F0EFFB4848F9
:1044800007990160BDF8201081804448C1680091FF
:10449000006914224149019002A8FBF7A3FE07A876
:1044A00002A90EC900F0E3FB3E4807990160BDF880
:1044B000201081803948C168009100691422374971
:1044C000019002A8FBF78EFE07A802A90EC900F012
:1044D000D6FB354807990160BDF82010818031482E
:1044E0008088ADF800002F48016805918088ADF8FC
:1044F00018002E48016803918088ADF8100007A8C5
:10450000DDE90423FFF7C8FBDDE9070100F070F8DF
:10451000274880ED000AC0ED010A80ED021A20480C
:10452000016807918088ADF82000DDE9070100F0FF
:1045300047F8204880ED000AC0ED010A80ED021A1C
:104540001948016807918088ADF82000DDE907016E
:1045500000F066F8184880ED000AC0ED010A80ED11
:10456000021A202215496846FBF73CFE124890EDDE
:10457000021AD0ED010A90ED000A104810380FC859
:10458000FFF75DFB0C4880ED000AC0ED010A80EDED
:10459000021A00BF5FE70000DC0000208406002054
:1045A000E0000020E6000020EC000020D400002005
:1045B000A406002098060020B0060020CC060020AB
:1045C00003B583B09FED090ADDE9030101F03BFB70
:1045D0008DED000ACDED010A8DED021A9DED000A68
:1045E000DDED010A9DED021A05B000BDCDCC1C3AEF
:1045F00003B583B09FED090ADDE9030101F023FB58
:104600008DED000ACDED010A8DED021A9DED000A37
:10461000DDED010A9DED021A05B000BD2D237A3CA7
:1046200003B583B0B7EE000ADDE9030101F00BFB2F
:104630008DED000ACDED010A8DED021A9DED000A07
:10464000DDED010A9DED021A05B000BD07B5BDF80C
:1046500000001080BDF802005080BDF8040090807A
:104660000EBD01B52DED040B9DED000A80ED000A95
:104670009DED010A80ED010A9DED020A80ED020A1E
:1046800005B000BD2DE9F04105460E4614461F4613
:1046900037B1224631462846FBF7A4FDBDE8F0813C
:1046A000002005E02919491E091A325C0A70401CD5
:1046B000A042F7DB00BFF1E710B50346002004E09D
:1046C00031F8104023F81040401C9042F8DB10BD38
:1046D0000FB5BDF800001880BDF802005880BDF885
:1046E00004009880BDF80600D880BDF80800188145
:1046F000BDF80A0058810FBD07B5029941600199C4
:1047000001600EBD70B5044600F082F9054600BF99
:1047100000F07EF9401BA042FAD370BD10B50446EC
:104720004FF47A7104FB01F0FFF7ECFF10BD10B5F8
:1047300000F0C0FD08B100F00BF800F0C5FD08B1B5
:1047400000F028F800F0C6FD08B100F02DF810BD0B
:1047500010B501F0F5F910BD10B500F02BF810BD43
:10476000002101607047000010B500200549086075
:10477000054801F0D3F9054801F006FA044801F0B4
:1047800003FA10BD6C0000205C000020180400201B
:10479000E803002010B5FFF7E7FF0020014908609B
:1047A00010BD00000C010020002001490860704786
:1047B0002001002010B5052000F001F810BD70B5F3
:1047C0000446204600F0A8F8054600212846FDF7DB
:1047D000E8FA70BD0120014908607047100100200F
:1047E00010B500F045F810BD10B52DED028B01207D
:1047F0000549086000F0BEF8B0EE408A01F050FABA
:10480000BDEC028B10BD00000C0100201CB5032084
:10481000012100230A46CDE9001089021148FCF766
:10482000FBFD0320012100230A46CDE900104021B1
:104830000D48FCF7F1FD0320012100230A46CDE9D4
:10484000001004210948FCF7E7FD4FF4806005499A
:104850001831088040200449488304200349183156
:1048600008801CBD000C024000000240000802400D
:1048700010B5052000F001F810BD70B504462046C3
:1048800000F04AF8054601212846FDF78AFA70BD76
:1048900070B504463225204600F005FD18B9606861
:1048A000B0F5006F01DB002070BD6068C0F50060EE
:1048B000A84201DD284602E06068C0F500600546B8
:1048C00062685119206801F019F820606068284476
:1048D0006060322D01DB0120E6E70020E4E782B0D2
:1048E000CDE9000121F0004001909DED000B02B0E8
:1048F00051EC100B704700000146032902D0052936
:1049000004D101E0024870470248FCE70020FAE7C2
:10491000E0010020EC0100200146032902D0052916
:1049200004D101E0024870470248FCE70020FAE7A2
:10493000004C00400014014010B50446204601F030
:104940000EFC00F0C1FC08B1FFF724FF00F0C2FC30
:1049500008B1FFF729FF10BD10B5FFF777FD044838
:1049600090ED000AD0ED010A90ED021A10BD000092
:1049700098060020014890ED000A7047C000002012
:104980000348008800EE100AB8EE400A70470000A5
:10499000980500200348408800EE100AB8EE400A4F
:1049A00070470000980500200348808800EE100A38
:1049B000B8EE400A70470000980500200348C08800
:1049C00000EE100AB8EE400A70470000980500207B
:1049D000024B0ECB80E80E0070470000000600205E
:1049E000024B0ECB80E80E0070470000F40500205B
:1049F000024B0ECB80E80E0070470000E805002057
:104A0000024B0ECB80E80E00704700000C06002021
:104A100010B500F0CBF901218807FCF7EEFA40B1A0
:104A200009480068401C0849086001218807FCF714
:104A3000C3FA4FF08040FCF7DDFA03490968002211
:104A4000A1FB0212401810BD44000020034890ED65
:104A5000000AD0ED010A90ED021A70477806002096
:104A600010B5FFF72DFB08B1012010BDFFF7CAFA02
:104A700008B10020F9E7FFF79BF908B10620F4E739
:104A8000FFF7C6F908B10520EFE7FFF79DF908B178
:104A90000420EAE7FFF706FA08B10220E5E7FFF78E
:104AA0003FFA08B10320E0E70720DEE710B5FFF783
:104AB000CDFC044890ED000AD0ED010A90ED021AF9
:104AC00010BD0000A40600200FB40CB5089A05998B
:104AD00091FBF2F109B2ADF80010089A069991FB2A
:104AE000F2F109B2ADF80210DDE9071291FBF2F123
:104AF00009B2ADF8041000990160BDF8041081807E
:104B000002B05DF814FB000010B5044600F02AFE68
:104B1000032202492046FFF7CFFD10BD8A00002086
:104B200001460020032902D0052904D101E00348F1
:104B300002E0034800E000BF00BF704738010020DA
:104B40008C01002010B5FFF781FC044890ED000AAD
:104B5000D0ED010A90ED021A10BD0000B006002051
:104B60000FB49DED0F0A04B070470146B1F5807F88
:104B700001D140207047B1F5007F01D14220F9E713
:104B8000B1F5806F01D14420F4E7B1F5006F01D198
:104B90004620EFE7B1F5805F01D14820EAE7002029
:104BA000E8E70146B1F5807F01D150207047B1F5AB
:104BB000007F01D15220F9E7B1F5806F01D1542077
:104BC000F4E7B1F5006F01D15620EFE7B1F5805F52
:104BD00001D15820EAE70020E8E770B5054695F9CD
:104BE0000840601C08B9002070BD0CB90120FBE72B
:104BF000012C07D12846FFF7D3F908B10220F3E7CB
:104C00000120F1E7022C07D1284600F083FB08B110
:104C10000020E9E70320E7E7032C01D10420E3E7C4
:104C2000042C07D12846FFF7BBF908B10520DBE7C4
:104C30000420D9E7052C01D10020D5E74FF0FF3043
:104C4000D2E700B50246104600F02DFB10B14FF040
:104C5000FF3000BDD2E90101401AFAE70FB4DDF8D8
:104C600006100160BDF80A10818004B070470FB4CF
:104C7000039A0260BDF81010818004B070470FB431
:104C8000DDF812200260BDF81610818004B0704774
:104C9000034890ED020ADFED030A30EE600A704728
:104CA000980600203333254100B58DB001A8FFF7E9
:104CB0009FFE01A807C807AB07C39DED070ADFEDFC
:104CC0000A0AB4EEE00AF1EE10FA0ADD04A8FFF7D2
:104CD0008FFE04A807C80AAB07C39DED0A0A0DB0F2
:104CE00000BD9FED010AFAE70080894410B52DED63
:104CF000028B044601F00AFCB0EE408A2046B0EE7A
:104D0000480A01F015FCBDEC028B10BD10B504463D
:104D100000F0E0FA08B1FFF73DFD204601F0D6FBB8
:104D200010BD10B5044600F0CFFA08B1FFF732FD10
:104D3000204601F0EFFB10BD10B50821014800F03E
:104D400003F810BD10070020FEB504460D4600F024
:104D500012FF684600F028FD694604F1280000F0C3
:104D6000CDF9284600F02DFB86B2314604F11C0037
:104D700000F0D1F9FF20207200BF204601F0C4F9F5
:104D80000228FAD1FEBD70B504460D46B5F5006F98
:104D900002DD4FF4006000E0284605462846FEF795
:104DA00009FC206065600020A06070BD0EB514484D
:104DB000006800B10EBD01201149086001210846BC
:104DC000FBF764FF0F48006840080F49B0FBF1F0A3
:104DD000401E80B2ADF800004FF0FF30019000207F
:104DE000ADF80800ADF8020069464FF08040FCF7CE
:104DF00061FA01218807FCF7E2F800BFDAE700005A
:104E0000400000201000002040420F0070B5044612
:104E10000D46A560204600F097FE70BD10B500F06D
:104E20007DF910BD10B59FED071AF0EE080A9FED51
:104E3000060A064800F00EF84FF47A610448FFF7BE
:104E4000E5FF10BD0000000000007A43440600208A
:104E50006C060020F0EE001A61EE211AC0ED021A75
:104E6000F0EE001A60EEA11AC0ED011A80ED000A02
:104E7000DFED061AC0ED051AC0ED041AC0ED031AE5
:104E8000F7EE001AC0ED061A70470000000000009F
:104E90001CB5FFF7BBFC01210220FBF7E7FE4FF436
:104EA0004060009002208DF8040001208DF806007B
:104EB0008DF8070003208DF8050069460648FBF7CA
:104EC00007FD04220A210448FBF74AFD04220B21B6
:104ED0000148FBF745FD1CBD0004024000B587B04A
:104EE00005A8FFF711FE05A901A8FFF73BFADDE9C8
:104EF0000101CDE903010348DDE9031200F048F8A0
:104F000007B000BDD400002010B54FF4FA6103488B
:104F100000F008F8024800F0DDF810BD5807002046
:104F20006C07002001600022C26042608260026162
:104F3000704710B5FFF7ACFF00F002F810BD00009D
:104F40001FB50E48FBF75EFD01218805FBF79EFEAD
:104F50000020ADF804004FF48060ADF80A00084866
:104F600000904FF48040ADF80C0069460348FBF711
:104F7000AFFD01210148FBF739FD1FBD005800407E
:104F8000801A060010B500F00BF8FFF7A7FF10BD60
:104F900007B501990160BDF8081081800EBD0000C1
:104FA00010B5024800F096F810BD000084060020FD
:104FB00010B500F005F800F075F800F031F810BDFC
:104FC0001CB501211020FBF751FE4FF4D440009096
:104FD00002208DF8040003208DF8050000208DF8D4
:104FE000060001208DF8070069460C48FBF770FCAD
:104FF000012209210948FBF7B3FC01220B210748D4
:10500000FBF7AEFC01220D210448FBF7A9FC0122AD
:105010000E210248FBF7A4FC1CBD0000001002405A
:1050200000B585B06020ADF800000120ADF80200A9
:105030009FED1A0AFFF7F8F902900020ADF80C0076
:1050400069461748FBF7E2FF08211548FCF71CF8F2
:1050500069461348FCF722F808211148FCF770F85C
:1050600069460F48FCF77AF808210D48FCF7C6F8A6
:1050700069460B48FCF7CCF808210948FCF704F90D
:1050800001210748FBF78CFF01210548FBF7A3FF2F
:1050900001210348FBF793FF05B000BD00007A44EF
:1050A000000001400EB501210846FBF70FFE49F64E
:1050B0003F4001901120ADF800000020ADF808003D
:1050C000ADF8020069460248FCF7F4F80EBD000096
:1050D0000000014010B586B00446D0202070182092
:1050E0006070206914222146009001A8FBF77AF82D
:1050F00001A80FC8FFF72FF806B010BD0A8802807C
:105100004A8842808A888280CA88C2800A8902814D
:105110004A894281704701807047000010B51E2205
:105120000249052000F05EF810BD0000A0860100D5
:105130007CB504460D461048006800B17CBD0120D6
:105140000D49086029460D48FFF71DFE0C480190E7
:105150000320DDE9001200F007FC2046FFF702F80B
:1051600002235A0234210748FFF778F80121054845
:10517000FCF717FE00BFE1E728000020E001002057
:1051800085540008004C00407CB504460D4611488B
:10519000006800B17CBD01200E49086029460E4818
:1051A000FFF7F1FD0D4801900520DDE9001200F048
:1051B000DBFB2046FFF714F802234FF4C0624721BF
:1051C0000748FFF74BF801210548FCF7EAFD00BF4F
:1051D000E0E700002C000020EC01002085540008CE
:1051E0000014014070B504460D461646032C04D148
:1051F00031462846FFF79CFF05E0052C03D13146D8
:105200002846FFF7C1FF70BD2DE9F0410B3020F0BB
:105210000706104D19E02068B04215D3B0420AD9F4
:10522000871B201DD4F80480FAF7DCFFA019C0E921
:105230000078286004E060682860201DFAF7D2FF3B
:10524000201D2660BDE8F081251D2C68002CE2D1D0
:105250000020F7E72C010020F0EE400AF6EE001ADD
:1052600060EEA11AB0EE611AB0EE600A10EE100AFC
:105270000749A1EB600000EE100A21EE002AF7EECC
:10528000081A42EE401A61EE801AB0EE610A7047C9
:10529000DF59375F07B50298B0F5006F01DB0120D9
:1052A0000EBD0020FCE70146086808B901207047E0
:1052B0000020FCE701480068704700001001002052
:1052C00007B500980EBD0000014800687047000057
:1052D0000C010020014800687047000020010020F8
:1052E0000148006870470000C400002003480068BF
:1052F000007808B9012070470020FCE71401002065
:1053000003480068007808B1012070470020FCE7DE
:105310001401002001468869401C88618869B0F545
:105320007A7F03DD00208861012070470020FCE7C0
:1053300001480068704700007C0000200EB500BFE7
:105340001648FEF71FFD0028FAD0FEF7B5FC00F066
:1053500017FEFEF70DFD08B100200EBD01F01AF892
:105360008DED000ACDED010A8DED021A0C4801F019
:1053700023F80B4890ED032AF0EE421A90ED022A32
:10538000B0EE421A90ED012AF0EE420A90ED002AAA
:10539000B0EE420A01F046FD0120DEE78007002062
:1053A000A407002000F090FC00F046FD00F0A8FBF0
:1053B00006E000BFFFF7C2FF0028FBD100F0A0FB12
:1053C000F7E7014611B94FF480707047022901D107
:1053D0000802FAE7042901D10802F6E7062902D1FA
:1053E0004FF40060F1E7082901D14802EDE74FF0E2
:1053F000FF30EAE700B52DED040B2DED028B83B0F5
:105400009DED050A20EE000ADDED060A9DED061A67
:1054100000EE810ADDED070A9DED071A00EE810A14
:10542000B0EE408AB5EEC08AF1EE10FA09D19DEDDA
:10543000050ADDED060A9DED071A03B0BDEC028BEF
:105440000FBDB0EE480AFEF71CF8F7EE000A80EE3A
:10545000801AB0EE418AF0EE481A9DED071ADDED94
:10546000060A9DED050A00F0D1FB8DED000ACDED99
:10547000010A8DED021A9DED000ADDED010A9DED98
:10548000021ADAE72DE9F04107460D46164628468E
:10549000FFF732FA044694E80700FFF7FBFE10B16D
:1054A0002046FEF747FE1CB131462046FEF71EF9A6
:1054B000BDE8F08170B505460C4616466078217847
:1054C00040EA012000B26880E078A17840EA01203B
:1054D00001B2A9806079217940EA012001B2E98016
:1054E000607A217A40EA012001B22981E07AA17A2A
:1054F00040EA012001B26981607B217B40EA012002
:1055000001B2A9810E2E14DD0A48FCF79DFBE07B59
:10551000A17B40EA012001B2E981607C217C40EA64
:10552000012001B22982E07CA17C40EA012001B285
:10553000698270BDA003002000B52DED0A8B87B0F5
:10554000F0EE409AF0EE608AB0EE418AB0EE619AD9
:10555000B0EE000A68EE800AB7EE000A00EEE80A34
:10556000F0EE000A68EE200A00EEC80A10EE101AEB
:105570000846FAF7E7FF41EC1B0BB0EE000A29EEF4
:10558000800A20EE280AF0EE000A68EE200A00EEFB
:10559000890A10EE101A0846FAF7D4FF41EC1C0BEA
:1055A000B0EE4B1AF0EE6B1AB0EE4C0AF0EE6C0A4D
:1055B000FCF7FEFFB0EE40AAF0EE60AA51EC1A0B29
:1055C000FAF7ECFF0490B0EE000A29EE800A20EE14
:1055D000080AF0EE000A69EE200A00EEE80A10EE72
:1055E000101A0846FAF7AEFF41EC1B0BB0EE4B0A5F
:1055F000F0EE6B0AFCF7C0FCB0EE40AAF0EE60AA39
:1056000051EC1A0BFAF7CAFF0590B0EE000A29EE2A
:10561000000A20EE090AF0EE000A68EE200A00EE09
:10562000880AF7EE000A30EEC00A10EE101A08469B
:10563000FAF788FF41EC1B0BB8EE000A29EE800A4E
:1056400020EE090AF0EE000A68EE200A00EEE80AF1
:1056500010EE101A0846FAF775FF41EC1C0BB0EE7D
:105660004B1AF0EE6B1AB0EE4C0AF0EE6C0AFCF737
:105670009FFFB0EE40AAF0EE60AA51EC1A0BFAF7C9
:105680008DFF0690DFED0C1A9DED061ADDED050A83
:105690009DED040A00F0BAFA8DED010ACDED020A83
:1056A0008DED031A9DED010ADDED020A9DED031A51
:1056B00007B0BDEC0A8B00BDE42E654210B58CB07E
:1056C000044608A80190206914222146009003A8EE
:1056D000FAF788FD03A80FC800F074F90E2208A994
:1056E0002046FFF7E7FE0CB010BD00001CB50623F6
:1056F00000226946104600F062F80322024968461B
:1057000001F0D6FC1CBD00008A0000202DE9F0410C
:1057100007460E46154600240121384600F0B4FB2A
:1057200001210E48FBF741F914E0681EA04205D1A3
:1057300000210A48FBF739F900F0DCFB00BF0849FB
:105740000648FBF73EF90028F9D00448FBF734FA85
:105750003055641CAC42E8DBBDE8F08100580040E5
:105760004000030010B50648006800B910BDFFF7FF
:10577000BDFF00F04DF801200149086000BFF5E7CA
:105780008000002038B50446A22000EB4400C1B2DE
:1057900002236A46EC2000F04DF99DF801009DF8C7
:1057A000001040EA012038BD3EB50446684600F0CE
:1057B0003FF823469DE80700FEF78AFF3EBD10B57F
:1057C0000446002010BD10B58EB0044608A8019014
:1057D000206914222146009003A8FAF703FD03A8CC
:1057E0000FC800F0EFF80DF12E000190206914228F
:1057F0002146009003A8FAF7F5FC03A80FC800F0B3
:1058000035F9152208A92046FFF754FE0EB010BD49
:105810001CB50623002269461046FFF7D0FF03227D
:105820000249684601F044FC1CBD00008A000020CB
:1058300010B504460020FFF7A5FF20800120FFF7E8
:10584000A1FF60800220FFF79DFFA0800320FFF7EB
:1058500099FFE0800420FFF795FF20810520FFF7E6
:1058600091FF608110BD10B504460220207204F142
:105870001C0000F008F804F12800D4E9081201F037
:10588000E3FB012010BD38B5044603236A4600211E
:10589000EC2000F0CFF89DF8000000049DF8011006
:1058A00040EA01209DF8021008436060606838BD3E
:1058B00010B504460520207204F11C0000F008F821
:1058C00004F12800D4E9081201F0BEFB022010BD4B
:1058D00038B5044603236A460021EC2000F0AAF8FC
:1058E0009DF8000000049DF8011040EA01209DF899
:1058F00002100843A060A06838BD00002DE9F04701
:1059000004008A4616D054F8047CD4F800903E1F58
:10591000564500D956462046FCF7FEFA054688460D
:10592000324621465046FFF76FFC40B1C0F8009068
:10593000BDE8F087BDE8F0470846FDF73BBE44E907
:10594000017955B129686A18211F8A4202D9611B61
:10595000091F2960C5F80480EAE7024AC2F80080FE
:10596000E6E700002C01002037B505462846FFF782
:10597000D7F8044604B93EBD211D226801EBC200E0
:10598000DDE90112FEF7B8FE2068401C206000BF70
:10599000F1E730B582688A4201DD0A4600E082689C
:1059A00011468268531A002205E055180468645DA8
:1059B0000568AC54521C9A42F7DB8268521A826026
:1059C00030BD000010B5039C1948FCF799F8184841
:1059D000FCF7E2F800230222154924312046FEF7A5
:1059E00051FE0023022212492631A01CFEF74AFE76
:1059F000002302220E492831201DFEF743FE00231A
:105A000002220B492A3104F10800FEF73BFE002375
:105A1000022207492C3104F10A00FEF733FE00236D
:105A2000022203492E3104F10C00FEF72BFE10BDBB
:105A3000A00300202DE9F04106460F4614461D46FE
:105A40003946304600F007F82A4621463046FFF72F
:105A50005DFEBDE8F08138B505460C460094012294
:105A60006946284601F052FB38BD000010B5039C82
:105A70000C48FCF7E9F8002302220A49303120469D
:105A8000FEF700FE0023022206493231A01CFEF779
:105A9000F9FD0023022203493431201DFEF7F2FDF7
:105AA00010BD0000A003002010B5044600202072A5
:105AB000D4E90812E06900F002F8002010BD37B503
:105AC000BDF80000FFF751F804462146EC20FFF72F
:105AD000C2FF3EBD10B5044603202072D4E908126F
